S016000047616D65436F6E74726F6C6C65722E7372656370
S11300000C94D2000C94EF000C94EF000C94EF00CD
S11300100C94EF000C94EF000C94EF000C94EF00A0
S11300200C94EF000C94EF000C94EF000C94EF0090
S11300300C94EF000C94EF000C94EF000C94EF0080
S11300400C94EF000C94EF000C94EF000C94EF0070
S11300500C94EF003A06410641064106410641066A
S11300604106410641064106410641064106410654
S11300704106410641064106410641064106410644
S11300804106410641064106410641064106140661
S11300908C05AF054106240641064106410641068A
S11300A04106410641064106410641064106410614
S11300B02F064106DA0541064106F60541064106CA
S11300C04106410641064106410641064106040631
S11300D08C05970541062406410641064106410662
S11300E041064106410641064106410641064106D4
S11300F02F064106CC0541064106E8053A064106AD
S113010041064106410641064106410641064106B3
S113011041064106410641064106410641064106A3
S11301204106410641064106410641064106410693
S11301304106410641064B068C05AE0541062406E0
S11301404106410641064106410641064106410673
S113015041064106410641062F064106D9054106DE
S11301604106F505410641064106410641064106A0
S113017041064106410603068C0596054106240600
S11301804106410641064106410641064106410633
S113019041064106410641062F064106CB054106AC
S11301A04106E70511241FBECFE5D8E0DEBFCDBF71
S11301B010E0A0E6B0E0E6EFF5E102C005900D9294
S11301C0A63BB107D9F720E0A6EBB0E001C01D9231
S11301D0A73DB207E1F70E948F060C94F90A0C942C
S11301E00000009731F022E02A95F1F700C0019752
S11301F0D1F70895009741F0EFECF7E03197F1F76C
S113020000C000000197C1F70895982F9770869554
S113021086958695813021F130F08230F1F183307A
S113022009F458C00895662369F04AB321E030E028
S1130230B90102C0660F771F9A95E2F7CB01842BB0
S11302408ABB08954AB321E030E0B90102C0660FC9
S1130250771F9A95E2F7CB01809584238ABB089592
S1130260662369F047B321E030E0B90102C0660FAC
S1130270771F9A95E2F7CB01842B87BB089547B388
S113028021E030E0B90102C0660F771F9A95E2F7CA
S1130290CB018095842387BB0895662369F044B31A
S11302A021E030E0B90102C0660F771F9A95E2F7AA
S11302B0CB01842B84BB089544B321E030E0B90121
S11302C002C0660F771F9A95E2F7CB0180958423CD
S11302D084BB0895662369F041B321E030E0B9019D
S11302E002C0660F771F9A95E2F7CB01842B81BB7E
S11302F0089541B321E030E0B90102C0660F771FD1
S11303009A95E2F7CB018095842381BB0895982FB9
S11303109770869586958695813021F130F08230EC
S1130320F1F1833009F458C00895662369F04BB3A2
S113033021E030E0B90102C0660F771F9A95E2F719
S1130340CB01842B8BBB08954BB321E030E0B90182
S113035002C0660F771F9A95E2F7CB01809584233C
S11303608BBB0895662369F048B321E030E0B901FE
S113037002C0660F771F9A95E2F7CB01842B88BBE6
S1130380089548B321E030E0B90102C0660F771F39
S11303909A95E2F7CB018095842388BB0895662360
S11303A069F045B321E030E0B90102C0660F771F60
S11303B09A95E2F7CB01842B85BB089545B321E0E0
S11303C030E0B90102C0660F771F9A95E2F7CB01BE
S11303D08095842385BB0895662369F042B321E0A8
S11303E030E0B90102C0660F771F9A95E2F7CB019E
S11303F0842B82BB089542B321E030E0B90102C0EE
S1130400660F771F9A95E2F7CB018095842382BB10
S11304100895282F2770869586958695813079F0E2
S113042028F08230A9F08330E1F024C089B390E051
S113043002C0959587952A95E2F78170089586B351
S113044090E002C0959587952A95E2F7817008950A
S113045083B390E002C0959587952A95E2F7817061
S1130460089580B390E002C0959587952A95E2F7A8
S11304708170089580E0089511B886E480B984E01D
S113048086BF089584EA86BF06B607FEFDCF0895A9
S113049084E986BF84E690E00E94F100089583B960
S11304A084E886BF06B607FEFDCF089520E4829F48
S11304B0C0011124846886BF06B607FEFDCF83B150
S11304C008950F931F93CF93C82F84FB662760F979
S11304D00CEB10E0F80182850E948701C5FB6627BA
S11304E060F9F80183850E948701C6FB662760F9DD
S11304F0F80184850E9487016C2F661F6627661F9A
S1130500F80185850E948701CF911F910F9108956D
S1130510CF93DF93CCEBD0E060E08B810E94870126
S113052060E08C810E94870161E08D810E948701D7
S11305308AE090E00E94F10060E08D810E948701D2
S1130540DF91CF9108950F931F93CF93C82F682FF6
S113055061700CEB10E0F80186810E948701C1FBF9
S1130560662760F9F80187810E948701C2FB66272C
S113057060F9F80180850E948701C3FB662760F952
S1130580F80181850E948701CF911F910F910895F1
S1130590CF93DF93CCEBD0E061E08B810E948701A5
S11305A060E08C810E94870161E08D810E94870157
S11305B08AE090E00E94F10060E08D810E94870152
S11305C0DF91CF9108951F93CF93DF938091C00063
S11305D08F3FE9F1CCEBD0E060E08D850E9405010E
S11305E060E08B810E94870161E08C810E94870119
S11305F060E08D810E9487018AE090E00E94F10012
S113060061E08D810E9487018AE090E00E94F10000
S11306108D850E940902182F8A81843081F460E05C
S11306208D810E9487018AE090E00E94F10061E0E0
S11306308D810E9487018AE090E00E94F1001111EF
S1130640D7CF61E08091C9000E94050104C081E018
S113065090E00E94FA00DF91CF911F9108958F924C
S11306609F92AF92BF92CF92DF92EF92FF920F933D
S11306701F93CF93DF93CDB7DEB7982EB62ED42E2B
S1130680FF841889ECEBF0E083836483458326833D
S11306900783E086C186A2868386F48615872F3F6A
S11306A039F00F3F29F08FEFE81611F0C81204C09B
S11306B084E08093BE0013C088E08093BE0061E0B4
S11306C0822F0E94050161E0802F0E94050161E0F4
S11306D08E2D0E94050161E08C2D0E94050161E0D0
S11306E0892D0E94050161E08B2D0E94050161E0C6
S11306F08D2D0E94050161E08A2D0E94050161E0B3
S1130700882D0E94050161E08F2D0E94050161E0A2
S1130710812F0E940501DF91CF911F910F91FF90CE
S1130720EF90DF90CF90BF90AF909F908F900895FF
S1130730CF93C82F0E94E3028091BE00883021F439
S11307408C2F0E94A30207C08C2F0E9461020E947A
S11307508802C295C07F8C2F0E9461020E94880289
S1130760CF9108959091BC00891758F41092CA0053
S11307708093CB00E82FF0E0E05AFF4F80810E9485
S11307809803089581E00E94980380E00E94B203D8
S11307900895ECEBF0E061838083833040F06F7068
S11307A0E0E6F0E080E9860F82836053638384E6A9
S11307B090E00E94FA008091BE00883021F488E322
S11307C00E94980329C0843039F580E30E946102B5
S11307D00E94880284E690E00E94FA0080E30E946E
S11307E061020E94880288EC90E00E94F10080E39C
S11307F00E9461020E94880288EC90E00E94F1004D
S113080080E20E9461020E94880288EC90E00E94CB
S1130810F10088E20E9498038EE00E9498030E94EF
S1130820C20308958091CB008F5F8093CB00109218
S1130830CA009091BC00891710F01092CB00E0918F
S1130840CB00F0E0E05AFF4F80810E9498030895A6
S1130850CF93C82F9091BD008091CA00891718F4D6
S1130860CA3029F420C00E941204CA30F1F00E9458
S1130870E3028091BE00883021F48C2F0E94A302F1
S113088007C08C2F0E9461020E94C802C295C07FDB
S11308908C2F0E9461020E94C8028091CA008F5F5F
S11308A08093CA0002C00E941204CF910895CF938E
S11308B0DF93EC018881882331F021960E9428047B
S11308C089918111FBCFDF91CF9108954F925F926F
S11308D06F927F928F929F92AF92BF92CF92DF924C
S11308E0EF92FF920F931F93CF93DF93CDB7DEB7B1
S11308F02A970FB6F894DEBF0FBECDBF882E6A01CB
S11309007B01122F82E0881224C0222309F466C0DE
S1130910AA24A394B12C01E0912C8FEF810FA5019F
S113092002C0440F551F8A95E2F7052E000C660B92
S1130930770B4C215D216E217F21802F452B462B87
S1130940472B09F4892D805D0E942804115029F752
S113095045C0452B462B472B19F0211105C03EC03D
S113096080E30E9428043AC0FE0131965F0100E052
S1130970482C512C612C712CC114D104E104F104D4
S113098089F09C2CC701B601A30192010E94BD0A03
S1130990C22ED32EE42EF52E829E90181124F5013A
S11309A0908207C01B3018F001110AC017C0F5016E
S11309B010820F5FFFEFAF1ABF0A1013DDCF01C023
S11309C0102FFE01E10FF11D80818A3010F0895C47
S11309D001C0805D0E942804115099F72A960FB631
S11309E0F894DEBF0FBECDBFDF91CF911F910F9161
S11309F0FF90EF90DF90CF90BF90AF909F908F903B
S1130A007F906F905F904F9008958F929F92AF92D6
S1130A10BF92CF92DF92EF92FF926B017C010E9412
S1130A2056094B015C012FEFAB01BC018AE00E9427
S1130A3066048EE20E942804C501B4010E9485095F
S1130A409B01AC01C701B6010E94E90820E034E231
S1130A5044E759E40E94180A0E945609AB01BC01FC
S1130A602FEF8AE00E946604FF90EF90DF90CF9012
S1130A70BF90AF909F908F9008954F925F926F9226
S1130A807F928F929F92AF92BF92CF92DF92EF921A
S1130A90FF920F931F93CF93DF93CDB7DEB7FE0181
S1130AA07396819091907F01D4018C91882309F4ED
S1130AB007C16894AA24A4F8BB24BA9400E0853240
S1130AC009F0DCC06401BFEFCB1ADB0AD401119634
S1130AD0EC91119780ED8E0F8A3008F0E6C01296E3
S1130AE0102F212F220F822F880F880F280F2053B9
S1130AF0122F1E0F6D01ED9180ED8E0F8A3088F359
S1130B008E2F90E0FC01B597E435F10508F0B9C0EB
S1130B10E65DFF4F0C94DF0A4701B2E08B0E911C97
S1130B20F70180810E9428047401ABC01B2DF701DA
S1130B3080809180F2E0EF0EF11C992034F49194BE
S1130B40819491088DE20E942804A401990C660BFB
S1130B50770B212F8AE00E94660493C01B2DF701B6
S1130B60408051806280738024E0E20EF11C772083
S1130B705CF47094609450944094411C511C611C2A
S1130B80711C8DE20E942804212FB301A2018AE086
S1130B900E94660476C01B2DF7014081518182E0DA
S1130BA0E80EF11C60E070E0212F8AE00E946604E8
S1130BB068C01B2DF7014081518162817381A4E0DB
S1130BC0EA0EF11C212F8AE00E9466045AC01B2DF4
S1130BD0F70140815181B2E0EB0EF11C60E070E05E
S1130BE0212F8A2D0E9466044CC01B2DF7014081E1
S1130BF0518162817381E4E0EE0EF11C212F8A2D74
S1130C000E9466043EC01B2DF70140815181F2E031
S1130C10EF0EF11C1F3F09F41A2D60E070E0212F44
S1130C2082E00E9466042DC0F701408151816281F7
S1130C30738124E0E20EF11C1F3F09F41A2D212FC9
S1130C4082E00E9466041DC0F70160817181828187
S1130C509381A4E0EA0EF11C0E94050512C047012D
S1130C60B2E08B0E911CF701808191810E945704A0
S1130C70740107C085E20E94280403C00E9428046E
S1130C8064014601FFEF8F1A9F0AD60111968C91D9
S1130C90811115CF15C0F7014081518162817381A3
S1130CA0B4E0EB0EF11C1A2DCACF8E2F90E0FC019C
S1130CB0B597E435F10528F7E258FF4F0C94DF0AA5
S1130CC0DF91CF911F910F91FF90EF90DF90CF9024
S1130CD0BF90AF909F908F907F906F905F904F9058
S1130CE00895E0EDF0E012821182108281E08483A5
S1130CF0858386E1868385E08383089584EE86B9BF
S1130D0010BE0895806487B98FEC97E00197F1F7DE
S1130D1000C0000084B125B190E0922B08952F9279
S1130D203F925F926F927F928F929F92AF92BF9207
S1130D30CF92DF92EF92FF920F931F93CF93DF93A3
S1130D40CDB7DEB729970FB6F894DEBF0FBECDBF7F
S1130D508FEF87BB88BB0E9471068FE18F938EE172
S1130D608F930F2EFDE18F2EF02D0F2EFCE1AF2E71
S1130D70F02DCC24CA94EE24EA940FEF2FEF47E130
S1130D806FEF86E10E942F0360E182E00E94C903B5
S1130D900E94810884E090E09093CF008093CE007D
S1130DA01092CD001092CC0088E0ECE7F0E0DE0178
S1130DB0119601900D928A95E1F780917A00805DF9
S1130DC0888719860F900F90C12CD12C0F2EF7E82D
S1130DD03F2EF02D0F2EFCEA8F2EF0E09F2EF02DEB
S1130DE00F2EF4E96F2EF0E07F2EF02D0F2EF4E895
S1130DF0AF2EF0E0BF2EF02D22242394512CC114E9
S1130E00D104D1F40E947E0681E00E9482068115FD
S1130E10924034F480ED90E00E949108C22CD52CCD
S1130E200E94C20380E00E94B203BF92AF920E946C
S1130E303D050F900F9038C181E0C816D10409F028
S1130E4033C10E947E0682E00E9482068115924090
S1130E500CF040C080ED90E00E94B6080E94C203EE
S1130E6080E00E94B2038AE890E09F938F930E94EF
S1130E703D05FFEF24E38CE0F15020408040E1F792
S1130E8000C000000E94C20380E00E94B20380916F
S1130E9079008F93809178008F9384E990E09F93F9
S1130EA08F930E943D0581E00E94B203E0EDF0E0E3
S1130EB080811F928F9381811F928F938EE990E09E
S1130EC09F938F930E943D050FB6F894DEBF0FBE2B
S1130ED0CDBFFDC016B817B88091CC009091CD005D
S1130EE00A9709F0EBC01092CD001092CC008091CB
S1130EF0CE009091CF00019665E070E00E94A90AAF
S1130F009093CF008093CE00880F991FFC01E25983
S1130F10FF4F808188BBD2C036B8F7018081F2E0F0
S1130F20EF0EF11C87B9369A3699FECF64B175B1CC
S1130F300024660F771F001C660F771F001C672FA5
S1130F40702D7093BB006093BA0080E090E00E9423
S1130F50850920E030E040E85BE30E94180A6093D2
S1130F60B6007093B7008093B8009093B90020E066
S1130F7030E040E050E40E94130A1816F4F4809123
S1130F80CE009091CF0080179107B9F080917A003C
S1130F9090917B00019790937B0080937A0020913D
S1130FA078003091790022533109309379002093ED
S1130FB07800009779F0805D88870F5F1F4F0530B8
S1130FC0110509F0A9CF80917A0090917B00892BBB
S1130FD009F040C080ED90E00E94B6080E94C20370
S1130FE080E00E94B2038AE890E09F938F930E946E
S1130FF03D052FEF84E39CE0215080409040E1F7D1
S113100000C000000E94C20380E00E94B2038091ED
S113101079008F93809178008F9384E990E09F9377
S11310208F930E943D0581E00E94B203E0EDF0E061
S113103080811F928F9381811F928F938EE990E01C
S11310409F938F930E943D050FB6F894DEBF0FBEA9
S1131050CDBF3DC08091CC009091CD00019690937E
S1131060CD008093CC000E94C20380E00E94B203B2
S113107080917B008F9380917A008F939F928F92BF
S11310800E943D0581E00E94B203809179008F9314
S1131090809178008F937F926F920E943D050FB6E6
S11310A0F894DEBF0FBECDBF9FEFE0E7F2E09150B2
S11310B0E040F040E1F700C00000A1CE0F2EF4E6BE
S11310C0EF2EF0E0FF2EF02D00E010E025CF80E0C1
S11310D090E029960FB6F894DEBF0FBECDBFDF9126
S11310E0CF911F910F91FF90EF90DF90CF90BF9021
S11310F0AF909F908F907F906F905F903F902F90D4
S113110008950E943C020E94420280ED0E944F0218
S113111087E00E944F0280E00E944F020E94480232
S11311200895CF93DF93EC010E94420280ED0E9468
S11311304F0280E00E944F0288810E944F02898101
S11311400E944F028A810E944F028B810E944F02AB
S11311508C810E944F028D810E944F028E810E94D9
S11311604F020E944802DF91CF910895CF93DF93FD
S1131170EC010E94420280ED0E944F0280E00E9436
S11311804F020E9448020E94420281ED0E944F02D7
S113119081E00E945602888381E00E94560289837E
S11311A081E00E9456028A8381E00E9456028B836A
S11311B081E00E9456028C8381E00E9456028D8356
S11311C080E00E9456028E830E944802DF91CF91F4
S11311D008955058BB27AA270E9401090C94D909E5
S11311E00E94CB0938F00E94D20920F039F49F3FC5
S11311F019F426F40C94C8090EF4E095E7FB0C945A
S1131200C209E92F0E94EA0958F3BA176207730763
S11312108407950720F079F4A6F50C940C0A0EF4D3
S1131220E0950B2EBA2FA02D0B01B90190010C01F2
S1131230CA01A0011124FF27591B99F0593F50F40A
S1131240503E68F11A16F040A22F232F342F442762
S1131250585FF3CF469537952795A795F04053955A
S1131260C9F77EF41F16BA0B620B730B840BBAF02A
S11312709150A1F0FF0FBB1F661F771F881FC2F795
S11312800EC0BA0F621F731F841F48F487957795A9
S11312906795B795F7959E3F08F0B0CF9395880F63
S11312A008F09927EE0F9795879508950E94F20903
S11312B088F09F5798F0B92F9927B751B0F0E1F013
S11312C0660F771F881F991F1AF0BA95C9F714C0C3
S11312D0B13091F00E940C0AB1E008950C940C0A0C
S11312E0672F782F8827B85F39F0B93FCCF38695FC
S11312F077956795B395D9F73EF490958095709559
S113130061957F4F8F4F9F4F0895E89409C097FBD5
S11313103EF490958095709561957F4F8F4F9F4FC8
S11313209923A9F0F92F96E9BB279395F69587950C
S113133077956795B795F111F8CFFAF4BB0F11F4CF
S113134060FF1BC06F5F7F4F8F4F9F4F16C0882376
S113135011F096E911C0772321F09EE8872F762FAC
S113136005C0662371F096E8862F70E060E02AF0ED
S11313709A95660F771F881FDAF7880F96958795D9
S113138097F9089597F99F6780E870E060E0089501
S11313909FEF80EC089500240A9416161706180689
S11313A00906089500240A94121613061406050665
S11313B00895092E0394000C11F4882352F0BB0FF6
S11313C040F4BF2B11F460FF04C06F5F7F4F8F4F59
S11313D09F4F089557FD9058440F551F59F05F3F94
S11313E071F04795880F97FB991F61F09F3F79F043
S11313F087950895121613061406551FF2CF4695C5
S1131400F1DF08C0161617061806991FF1CF869546
S11314107105610508940895E894BB27662777272A
S1131420CB0197F908950E94850A08F48FEF089577
S11314300E942B0A0C94D9090E94CB0938F00E940F
S1131440D20920F0952311F00C94C2090C94C80918
S113145011240C940D0A0E94EA0970F3959FC1F3BC
S1131460950F50E0551F629FF001729FBB27F00D4E
S1131470B11D639FAA27F00DB11DAA1F649F6627A3
S1131480B00DA11D661F829F2227B00DA11D621FF2
S1131490739FB00DA11D621F839FA00D611D221FAC
S11314A0749F3327A00D611D231F849F600D211D90
S11314B0822F762F6A2F11249F5750409AF0F1F013
S11314C088234AF0EE0FFF1FBB1F661F771F881F7C
S11314D091505040A9F79E3F510580F00C94C209E9
S11314E00C940D0A5F3FE4F3983ED4F38695779508
S11314F06795B795F795E7959F5FC1F7FE2B880F22
S1131500911D9695879597F90895990F0008550FA1
S1131510AA0BE0E8FEEF16161706E807F907C0F075
S113152012161306E407F50798F0621B730B840B7D
S1131530950B39F40A2661F0232B242B252B21F457
S113154008950A2609F4A140A6958FEF811D811DF7
S1131550089597FB072E16F4009407D077FD09D061
S11315600E94E50A07FC05D03EF4909581959F4FB3
S11315700895709561957F4F0895A1E21A2EAA1BD4
S1131580BB1BFD010DC0AA1FBB1FEE1FFF1FA2172F
S1131590B307E407F50720F0A21BB30BE40BF50B2C
S11315A0661F771F881F991F1A9469F760957095B5
S11315B0809590959B01AC01BD01CF010895EE0F7C
S11315C0FF1F0590F491E02D0994AA1BBB1B51E168
S11315D007C0AA1FBB1FA617B70710F0A61BB70B9F
S11315E0881F991F5A95A9F780959095BC01CD0144
S10915F00895F894FFCFFA
S11315F680C090D0670066006500640063007800D0
S1131606B800D800E800F000E80309004C696665F4
S1131616203A200053746172740047616D65204F4F
S11316267665720073636F72653A20256400746987
S11316366D653A202532783A253278006C696665FC
S10916463A2025640000B7
S9030000FC
