S016000047616D65436F6E74726F6C6C65722E7372656370
S11300000C94D2000C94EF000C94EF000C946E0648
S11300100C94EF000C94EF000C94EF000C94EF00A0
S11300200C94EF000C94EF000C94EF000C94EF0090
S11300300C94EF000C94EF000C94EF000C94EF0080
S11300400C94EF000C94EF000C94EF000C94EF0070
S11300500C94EF0037063E063E063E063E063E067C
S11300603E063E063E063E063E063E063E063E066C
S11300703E063E063E063E063E063E063E063E065C
S11300803E063E063E063E063E063E063E06110679
S11300908905AC053E0621063E063E063E063E06A2
S11300A03E063E063E063E063E063E063E063E062C
S11300B02C063E06D7053E063E06F3053E063E06E2
S11300C03E063E063E063E063E063E063E06010649
S11300D0890594053E0621063E063E063E063E067A
S11300E03E063E063E063E063E063E063E063E06EC
S11300F02C063E06C9053E063E06E50537063E06C5
S11301003E063E063E063E063E063E063E063E06CB
S11301103E063E063E063E063E063E063E063E06BB
S11301203E063E063E063E063E063E063E063E06AB
S11301303E063E063E0648068905AB053E062106F8
S11301403E063E063E063E063E063E063E063E068B
S11301503E063E063E063E062C063E06D6053E06F6
S11301603E06F2053E063E063E063E063E063E06B8
S11301703E063E063E060006890593053E06210618
S11301803E063E063E063E063E063E063E063E064B
S11301903E063E063E063E062C063E06C8053E06C4
S11301A03E06E40511241FBECFE5D8E0DEBFCDBF77
S11301B010E0A0E6B0E0E4E9F6E102C005900D929B
S11301C0A63BB107D9F720E0A6EBB0E001C01D9231
S11301D0AB3DB207E1F70E94AF060C94480B0C94B8
S11301E00000009719F000000197E9F708950097BF
S11301F041F0E9EFF0E03197F1F700C0000001971A
S1130200C1F70895982F97708695869586958130C5
S113021021F130F08230F1F1833009F458C00895AF
S1130220662369F04AB321E030E0B90102C0660FE9
S1130230771F9A95E2F7CB01842B8ABB08954AB3C2
S113024021E030E0B90102C0660F771F9A95E2F70A
S1130250CB01809584238ABB0895662369F047B354
S113026021E030E0B90102C0660F771F9A95E2F7EA
S1130270CB01842B87BB089547B321E030E0B9015B
S113028002C0660F771F9A95E2F7CB01809584230D
S113029087BB0895662369F044B321E030E0B901D7
S11302A002C0660F771F9A95E2F7CB01842B84BBBB
S11302B0089544B321E030E0B90102C0660F771F0E
S11302C09A95E2F7CB018095842384BB0895662335
S11302D069F041B321E030E0B90102C0660F771F35
S11302E09A95E2F7CB01842B81BB089541B321E0B9
S11302F030E0B90102C0660F771F9A95E2F7CB018F
S11303008095842381BB0895982F97708695869550
S11303108695813021F130F08230F1F1833009F497
S113032058C00895662369F04BB321E030E0B90169
S113033002C0660F771F9A95E2F7CB01842B8BBB23
S113034008954BB321E030E0B90102C0660F771F76
S11303509A95E2F7CB01809584238BBB089566239D
S113036069F048B321E030E0B90102C0660F771F9D
S11303709A95E2F7CB01842B88BB089548B321E01A
S113038030E0B90102C0660F771F9A95E2F7CB01FE
S11303908095842388BB0895662369F045B321E0E2
S11303A030E0B90102C0660F771F9A95E2F7CB01DE
S11303B0842B85BB089545B321E030E0B90102C028
S11303C0660F771F9A95E2F7CB018095842385BB4E
S11303D00895662369F042B321E030E0B90102C018
S11303E0660F771F9A95E2F7CB01842B82BB0895A1
S11303F042B321E030E0B90102C0660F771F9A953D
S1130400E2F7CB018095842382BB0895282F2770BF
S1130410869586958695813079F028F08230A9F00A
S11304208330E1F024C089B390E002C095958795AC
S11304302A95E2F78170089586B390E002C09595FD
S113044087952A95E2F78170089583B390E002C0FE
S1130450959587952A95E2F78170089580B390E089
S113046002C0959587952A95E2F78170089580E0FA
S1130470089511B886E480B984E086BF089584EABB
S113048086BF06B607FEFDCF089584E986BF84E6DD
S113049090E00E94F100089583B984E886BF06B60F
S11304A007FEFDCF089520E4829FC00111248468D3
S11304B086BF06B607FEFDCF83B108950F931F9341
S11304C0CF93C82F84FB662760F90EEB10E0F80188
S11304D082850E948401C5FB662760F9F801838543
S11304E00E948401C6FB662760F9F80184850E9496
S11304F084016C2F661F6627661FF80185850E949C
S11305008401CF911F910F910895CF93DF93CEEB88
S1130510D0E060E08B810E94840160E08C810E94C5
S1130520840161E08D810E9484018AE090E00E9450
S1130530F10060E08D810E948401DF91CF910895E4
S11305400F931F93CF93C82F682F61700EEB10E0A9
S1130550F80186810E948401C1FB662760F9F801D5
S113056087810E948401C2FB662760F9F8018085B7
S11305700E948401C3FB662760F9F80181850E940B
S11305808401CF911F910F910895CF93DF93CEEB08
S1130590D0E061E08B810E94840160E08C810E9444
S11305A0840161E08D810E9484018AE090E00E94D0
S11305B0F10060E08D810E948401DF91CF91089564
S11305C01F93CF93DF938091C2008F3FE9F1CEEB6D
S11305D0D0E060E08D850E94020160E08B810E9482
S11305E0840161E08C810E94840160E08D810E941D
S11305F084018AE090E00E94F10061E08D810E9414
S113060084018AE090E00E94F1008D850E94060238
S1130610182F8A81843081F460E08D810E948401E6
S11306208AE090E00E94F10061E08D810E948401E3
S11306308AE090E00E94F1001111D7CF61E080912F
S1130640CB000E94020104C081E090E00E94F70008
S1130650DF91CF911F9108958F929F92AF92BF9295
S1130660CF92DF92EF92FF920F931F93CF93DF937A
S1130670CDB7DEB7982EB62ED42EFF841889EEEBB4
S1130680F0E083836483458326830783E086C18601
S1130690A2868386F48615872F3F39F00F3F29F011
S11306A08FEFE81611F0C81204C084E08093C000F4
S11306B013C088E08093C00061E0822F0E94020191
S11306C061E0802F0E94020161E08E2D0E940201F0
S11306D061E08C2D0E94020161E0892D0E940201DB
S11306E061E08B2D0E94020161E08D2D0E940201C8
S11306F061E08A2D0E94020161E0882D0E940201BE
S113070061E08F2D0E94020161E0812F0E940201AD
S1130710DF91CF911F910F91FF90EF90DF90CF90D9
S1130720BF90AF909F908F900895CF93C82F0E9451
S1130730E0028091C000883021F48C2F0E94A00236
S113074007C08C2F0E945E020E948502C295C07F62
S11307508C2F0E945E020E948502CF910895909191
S1130760BE00891758F41092CC008093CD00E82F76
S1130770F0E0E05AFF4F80810E949503089581E0E4
S11307800E94950380E00E94AF030895EEEBF0E031
S113079061838083833040F06F70E0E6F0E080E9AD
S11307A0860F82836053638384E690E00E94F7009F
S11307B08091C000883021F488E30E94950329C009
S11307C0843039F580E30E945E020E94850284E64B
S11307D090E00E94F70080E30E945E020E9485027E
S11307E088EC90E00E94F10080E30E945E020E9487
S11307F0850288EC90E00E94F10080E20E945E0293
S11308000E94850288EC90E00E94F10088E20E9438
S113081095038EE00E9495030E94BF030895809182
S1130820CD008F5F8093CD001092CC009091BE00DC
S1130830891710F01092CD00E091CD00F0E0E05A5D
S1130840FF4F80810E9495030895CF93C82F909104
S1130850BF008091CC00891718F4CA3029F420C055
S11308600E940F04CA30F1F00E94E0028091C0009F
S1130870883021F48C2F0E94A00207C08C2F0E9484
S11308805E020E94C502C295C07F8C2F0E945E0248
S11308900E94C5028091CC008F5F8093CC0002C07F
S11308A00E940F04CF910895CF93DF93EC018881C8
S11308B0882331F021960E94250489918111FBCF70
S11308C0DF91CF9108954F925F926F927F928F92B2
S11308D09F92AF92BF92CF92DF92EF92FF920F93CB
S11308E01F93CF93DF93CDB7DEB72A970FB6F89453
S11308F0DEBF0FBECDBF882E6A017B01122F82E0BE
S1130900881224C0222309F466C0AA24A394B12C1B
S113091001E0912C8FEF810FA50102C0440F551FF8
S11309208A95E2F7052E000C660B770B4C215D21AE
S11309306E217F21802F452B462B472B09F4892DCF
S1130940805D0E942504115029F745C0452B462B94
S1130950472B19F0211105C03EC080E30E942504F5
S11309603AC0FE0131965F0100E0482C512C612C05
S1130970712CC114D104E104F10489F09C2CC70149
S1130980B601A30192010E940C0BC22ED32EE42EB9
S1130990F52E829E90181124F501908207C01B3019
S11309A018F001110AC017C0F50110820F5FFFEFA4
S11309B0AF1ABF0A1013DDCF01C0102FFE01E10FE3
S11309C0F11D80818A3010F0895C01C0805D0E9435
S11309D02504115099F72A960FB6F894DEBF0FBE7E
S11309E0CDBFDF91CF911F910F91FF90EF90DF90DA
S11309F0CF90BF90AF909F908F907F906F905F90BB
S1130A004F9008958F929F92AF92BF92CF92DF92B0
S1130A10EF92FF926B017C010E94A5094B015C01DE
S1130A202FEFAB01BC018AE00E9463048EE20E94B6
S1130A302504C501B4010E94D4099B01AC01C7017E
S1130A40B6010E94380920E034E244E759E40E94E8
S1130A50670A0E94A509AB01BC012FEF8AE00E943E
S1130A606304FF90EF90DF90CF90BF90AF909F9082
S1130A708F9008954F925F926F927F928F929F9280
S1130A80AF92BF92CF92DF92EF92FF920F931F9398
S1130A90CF93DF93CDB7DEB7FE017396819091902B
S1130AA07F01D4018C91882309F407C16894AA2496
S1130AB0A4F8BB24BA9400E0853209F0DCC06401D8
S1130AC0BFEFCB1ADB0AD4011196EC91119780ED9C
S1130AD08E0F8A3008F0E6C01296102F212F220FB5
S1130AE0822F880F880F280F2053122F1E0F6D019D
S1130AF0ED9180ED8E0F8A3088F38E2F90E0FC010B
S1130B00B597E435F10508F0B9C0E65DFF4F0C94E4
S1130B102E0B4701B2E08B0E911CF70180810E94DD
S1130B2025047401ABC01B2DF70180809180F2E095
S1130B30EF0EF11C992034F49194819491088DE284
S1130B400E942504A401990C660B770B212F8AE0DF
S1130B500E94630493C01B2DF70140805180628082
S1130B60738024E0E20EF11C77205CF470946094AE
S1130B7050944094411C511C611C711C8DE20E94D4
S1130B802504212FB301A2018AE00E94630476C0E8
S1130B901B2DF7014081518182E0E80EF11C60E0D9
S1130BA070E0212F8AE00E94630468C01B2DF701C6
S1130BB04081518162817381A4E0EA0EF11C212FEE
S1130BC08AE00E9463045AC01B2DF70140815181C1
S1130BD0B2E0EB0EF11C60E070E0212F8A2D0E9440
S1130BE063044CC01B2DF7014081518162817381E4
S1130BF0E4E0EE0EF11C212F8A2D0E9463043EC016
S1130C001B2DF70140815181F2E0EF0EF11C1F3FD3
S1130C1009F41A2D60E070E0212F82E00E94630441
S1130C202DC0F701408151816281738124E0E20E7D
S1130C30F11C1F3F09F41A2D212F82E00E94630446
S1130C401DC0F7016081718182819381A4E0EA0E65
S1130C50F11C0E94020512C04701B2E08B0E911CE8
S1130C60F701808191810E945404740107C085E2D8
S1130C700E94250403C00E94250464014601FFEF7D
S1130C808F1A9F0AD60111968C91811115CF15C028
S1130C90F7014081518162817381B4E0EB0EF11C54
S1130CA01A2DCACF8E2F90E0FC01B597E435F105DB
S1130CB028F7E258FF4F0C942E0BDF91CF911F9130
S1130CC00F91FF90EF90DF90CF90BF90AF909F90E7
S1130CD08F907F906F905F904F9008951F920F9226
S1130CE00FB60F9211242F938F939F9380917800C6
S1130CF090917900845691099093790080937800BB
S1130D002FE788E391E0215080409040E1F700C054
S1130D1000009F918F912F910F900FBE0F901F9005
S1130D201895E4EDF0E012821182108281E0848350
S1130D30858386E1868385E08383089584EE86B97E
S1130D4010BE0895806487B98FEC97E00197F1F79E
S1130D5000C0000084B125B190E0922B08952F9239
S1130D603F925F926F927F928F929F92AF92BF92C7
S1130D70CF92DF92EF92FF920F931F93CF93DF9363
S1130D80CDB7DEB729970FB6F894DEBF0FBECDBF3F
S1130D9088EF87BB88BB0E9491068FE18F938EE119
S1130DA08F930F2EFDE18F2EF02D0F2EFCE1AF2E31
S1130DB0F02DCC24CA94EE24EA940FEF2FEF47E1F0
S1130DC06FEF86E10E942C0360E182E00E94C6037B
S1130DD00E94D00880E28BBF84B7806484BF78947B
S1130DE084E090E09093D3008093D2001092D100DD
S1130DF01092D00088E0ECE7F0E0DE01119601905B
S1130E000D928A95E1F780917A00805D8887198632
S1130E100F900F900F2EF7E85F2EF02D0F2EFCEAA7
S1130E208F2EF0E09F2EF02D0F2EF4E9AF2EF0E080
S1130E30BF2EF02D0F2EF5E02F2E312CF02D0F2E7E
S1130E40F4E8CF2EF0E0DF2EF02D66246394712CAD
S1130E508091B6009091B700009741F50E949E06DC
S1130E6080E00E94A206992314F481509F4F292FF9
S1130E70392F330F330B3093CF002093CE00223021
S1130E80310544F47092B7006092B60084ED90E0AE
S1130E900E94E0080E94BF0380E00E94AF03DF923B
S1130EA0CF920E943A050F900F904DC1019709F01F
S1130EB04AC10E949E0682E00E94A206992314F46D
S1130EC081509F4F292F392F330F330B3093CF008D
S1130ED02093CE00223031050CF040C084ED90E028
S1130EE00E9405090E94BF0380E00E94AF038AE8C4
S1130EF090E09F938F930E943A052FEF84E39CE048
S1130F00215080409040E1F700C000000E94BF03E0
S1130F1080E00E94AF03809179008F9380917800E4
S1130F208F9384E990E09F938F930E943A0581E028
S1130F300E94AF03E4EDF0E080811F928F938181E2
S1130F401F928F938EE990E09F938F930E943A05AE
S1130F500FB6F894DEBF0FBECDBF08C116B817B8E0
S1130F608091D0009091D1000A9709F0F6C01092B8
S1130F70D1001092D0008091D2009091D3000196BC
S1130F80B1010E94F80A9093D3008093D200880F95
S1130F90991FFC01E259FF4F808188BB8FE493ECD9
S1130FA00197F1F700C00000D8C056B8F70180815E
S1130FB0F2E0EF0EF11C87B9369A3699FECF64B190
S1130FC075B10024660F771F001C660F771F001C85
S1130FD0672F702D7093BD006093BC0080E090E09B
S1130FE00E94D40920E030E040E85BE30E94670AF5
S1130FF06093B8007093B9008093BA009093BB00DB
S113100020E030E040E050E40E94620A1816F4F454
S11310108091D2009091D30080179107B9F080910C
S11310207A0090917B00019790937B0080937A00E3
S1131030209178003091790022533109309379005E
S1131040209378000097A9F0805D88878FE493EC63
S11310500197F1F700C000000F5F1F4F0530110525
S113106009F0A3CF80917A0090917B00892B09F03D
S113107040C084ED90E00E9405090E94BF0380E017
S11310800E94AF038AE890E09F938F930E943A05F1
S11310909FEFE4E3FCE09150E040F040E1F700C052
S11310A000000E94BF0380E00E94AF03809179009A
S11310B08F93809178008F9384E990E09F938F932E
S11310C00E943A0581E00E94AF03E4EDF0E08081E4
S11310D01F928F9381811F928F938EE990E09F934B
S11310E08F930E943A050FB6F894DEBF0FBECDBFB2
S11310F03DC08091D0009091D10001969093D10091
S11311008093D0000E94BF0380E00E94AF038091CF
S11311107B008F9380917A008F939F928F920E948D
S11311203A0581E00E94AF03809179008F9380910A
S113113078008F93BF92AF920E943A050FB6F8944D
S1131140DEBF0FBECDBFFFEF20E782E0F1502040AD
S11311508040E1F700C000007BCE0F2EF4E6EF2EB6
S1131160F0E0FF2EF02D00E010E01FCF80E090E0D3
S113117029960FB6F894DEBF0FBECDBFDF91CF9195
S11311801F910F91FF90EF90DF90CF90BF90AF90A1
S11311909F908F907F906F905F903F902F900895D5
S11311A00E9439020E943F0280ED0E944C0287E0B7
S11311B00E944C0280E00E944C020E944502089565
S11311C0CF93DF93EC010E943F0280ED0E944C021A
S11311D080E00E944C0288810E944C0289810E9416
S11311E04C028A810E944C028B810E944C028C81A9
S11311F00E944C028D810E944C028E810E944C02FE
S11312000E944502DF91CF910895CF93DF93EC01C3
S11312100E943F0280ED0E944C0280E00E944C023A
S11312200E9445020E943F0281ED0E944C0281E02F
S11312300E945302888381E00E945302898381E0E3
S11312400E9453028A8381E00E9453028B8381E0CF
S11312500E9453028C8381E00E9453028D8380E0BC
S11312600E9453028E830E944502DF91CF9108951C
S11312705058BB27AA270E9450090C94280A0E94A0
S11312801A0A38F00E94210A20F039F49F3F19F419
S113129026F40C94170A0EF4E095E7FB0C94110A5B
S11312A0E92F0E94390A58F3BA17620773078407B3
S11312B0950720F079F4A6F50C945B0A0EF4E095FA
S11312C00B2EBA2FA02D0B01B90190010C01CA01FC
S11312D0A0011124FF27591B99F0593F50F4503EA7
S11312E068F11A16F040A22F232F342F4427585F99
S11312F0F3CF469537952795A795F0405395C9F7B1
S11313007EF41F16BA0B620B730B840BBAF0915068
S1131310A1F0FF0FBB1F661F771F881FC2F70EC007
S1131320BA0F621F731F841F48F4879577956795DA
S1131330B795F7959E3F08F0B0CF9395880F08F0C6
S11313409927EE0F9795879508950E94410A88F092
S11313509F5798F0B92F9927B751B0F0E1F0660F75
S1131360771F881F991F1AF0BA95C9F714C0B130B6
S113137091F00E945B0AB1E008950C945B0A672F18
S1131380782F8827B85F39F0B93FCCF386957795E5
S11313906795B395D9F73EF49095809570956195CE
S11313A07F4F8F4F9F4F0895E89409C097FB3EF4F9
S11313B090958095709561957F4F8F4F9F4F99239E
S11313C0A9F0F92F96E9BB279395F695879577951C
S11313D06795B795F111F8CFFAF4BB0F11F460FFDC
S11313E01BC06F5F7F4F8F4F9F4F16C0882311F034
S11313F096E911C0772321F09EE8872F762F05C048
S1131400662371F096E8862F70E060E02AF09A95E2
S1131410660F771F881FDAF7880F9695879597F9D7
S1131420089597F99F6780E870E060E008959FEF62
S113143080EC089500240A94161617061806090667
S1131440089500240A941216130614060506089536
S1131450092E0394000C11F4882352F0BB0F40F4BE
S1131460BF2B11F460FF04C06F5F7F4F8F4F9F4FFE
S1131470089557FD9058440F551F59F05F3F71F080
S11314804795880F97FB991F61F09F3F79F08795E7
S11314900895121613061406551FF2CF4695F1DF70
S11314A008C0161617061806991FF1CF8695710500
S11314B0610508940895E894BB2766277727CB0134
S11314C097F908950E94D40A08F48FEF08950E94B2
S11314D07A0A0C94280A0E941A0A38F00E94210AF7
S11314E020F0952311F00C94110A0C94170A11247E
S11314F00C945C0A0E94390A70F3959FC1F3950F0E
S113150050E0551F629FF001729FBB27F00DB11D83
S1131510639FAA27F00DB11DAA1F649F6627B00D13
S1131520A11D661F829F2227B00DA11D621F739FFC
S1131530B00DA11D621F839FA00D611D221F749F0A
S11315403327A00D611D231F849F600D211D822F51
S1131550762F6A2F11249F5750409AF0F1F0882378
S11315604AF0EE0FFF1FBB1F661F771F881F9150A5
S11315705040A9F79E3F510580F00C94110A0C9439
S11315805C0A5F3FE4F3983ED4F3869577956795BC
S1131590B795F795E7959F5FC1F7FE2B880F911DCF
S11315A09695879597F90895990F0008550FAA0BFA
S11315B0E0E8FEEF16161706E807F907C0F0121662
S11315C01306E407F50798F0621B730B840B950B65
S11315D039F40A2661F0232B242B252B21F40895BA
S11315E00A2609F4A140A6958FEF811D811D089557
S11315F097FB072E16F4009407D077FD09D00E94BC
S1131600340B07FC05D03EF4909581959F4F0895C7
S1131610709561957F4F0895A1E21A2EAA1BBB1BFA
S1131620FD010DC0AA1FBB1FEE1FFF1FA217B307AA
S1131630E407F50720F0A21BB30BE40BF50B661FC0
S1131640771F881F991F1A9469F760957095809584
S113165090959B01AC01BD01CF010895EE0FFF1FD2
S11316600590F491E02D0994AA1BBB1B51E107C01E
S1131670AA1FBB1FA617B70710F0A61BB70B881F1E
S1131680991F5A95A9F780959095BC01CD010895AD
S1071690F894FFCFF8
S113169480C090D067006600650064006300780031
S11316A4B800D800E800F000E80309004C69666556
S11316B4203A200053746172740047616D65204FB1
S11316C47665720073636F72653A202564007469E9
S11316D46D653A202532783A253278006C6966655E
S10916E43A202564000019
S90300B646
