S0190000426C7565746F6F746852656365697665722E7372656320
S11300000C942A000C9434000C9434000C943400A6
S11300100C9434000C9434000C9434000C9434008C
S11300200C9434000C9434000C9434000C9434007C
S11300300C9434000C9434000C9434000C9434006C
S11300400C9434000C9434000C9434000C9434005C
S11300500C94340011241FBECFE5D8E0DEBFCDBF21
S11300600E9436000C94A9000C9400008FEF87BB0B
S113007018BA60E875E280E090E00E945400CFEF87
S113008018BA0E948300813311F4C8BB03C08033C3
S113009009F418BA2FE788E391E02150804090409A
S11300A0E1F700C00000ECCF1BB82AB128612AB9DF
S11300B020B5266820BDDC01CB01880F991FAA1F3B
S11300C0BB1F880F991FAA1FBB1F9C01AD01220FE4
S11300D0331F441F551F220F331F441F551F60E059
S11300E072E18AE790E00E9487008FEF820F89B95E
S11300F0DA01C9010197A109B109892F9A2FAB2F00
S1130100BB2780BD08955F9BFECF8CB10895A1E20B
S11301101A2EAA1BBB1BFD010DC0AA1FBB1FEE1F7D
S1130120FF1FA217B307E407F50720F0A21BB30BC8
S1130130E40BF50B661F771F881F991F1A9469F744
S113014060957095809590959B01AC01BD01CF01A0
S10901500895F894FFCFAE
S9030000FC
